:100000000C9421010C9449010C9449010C94490170
:100010000C9449010C9449010C9449010C94490138
:100020000C9449010C9449010C94C2060C948E0561
:100030000C9449010C9449010C9449010C94490118
:100040000C9449010C9449010C9449010C94490108
:100050000C9449010C9449010C9449010C945F01E2
:100060000C9449010C9449010C9449010C944901E8
:100070000C9449010C9449010C9449010C944901D8
:100080000C9449010C9449010C9449010C944901C8
:100090000C9449010C9449010C9449010C944901B8
:1000A0000C9449010C9449010C944901080B00027D
:1000B0000202010009040000010202000005240000
:1000C0001001052401010104240206052406000193
:1000D0000705810310004009040100020A00000026
:1000E000070502024000000705830240000000C12E
:1000F0008081C112010002020000408D0E01AB00A0
:10010000010102000112010002000000408D0E01F9
:10011000AB0001010200014D6564696154656B200B
:100120004C616273004C696E6B497420536D61724F
:100130007420373638382044756F000403090400F2
:10014000000000000000002A2B2800000000000032
:100150000000000000000000000000000000002C73
:100160009EB4A0A1A2A434A6A7A5AE362D373827E9
:100170001E1F20212223242526B333B62EB7B89F75
:100180008485868788898A8B8C8D8E8F90919293B7
:100190009495969798999A9B9C9D2F3130A3AD3555
:1001A0000405060708090A0B0C0D0E0F1011121397
:1001B0001415161718191A1B1C1DAFB1B0B500097C
:1001C0000402000103000000092101010001226571
:1001D000000705840340000105010902A10109018E
:1001E000A1008501050919012903150025019503C1
:1001F00075018102950175058103050109300931F9
:1002000009381581257F750895038106C0C0050151
:100210000906A1018502050719E029E71500250156
:100220007501950881029501750881039506750889
:10023000150025650507190029658100C0000D031B
:100240006D0811241FBECFEFDAE0DEBFCDBF11E095
:10025000A0E0B1E0E4E0F1E102C005900D92A63625
:10026000B107D9F721E0A6E6B1E001C01D92A53D96
:10027000B207E1F712E0C2E4D2E004C02297FE0127
:100280000E947C08CE33D107C9F70E942B030C943F
:1002900080080C94000040E855E260E070E08FE6D2
:1002A00091E00C9407036AE071E08FE691E00E9410
:1002B000800368EE73E080E090E00C94CC011F9224
:1002C0000F920FB60F9211242F933F938F939F930A
:1002D000AF93BF938091670190916801A0916901EC
:1002E000B0916A013091660126E0230F2D3720F48A
:1002F0000296A11DB11D05C029E8230F0396A11D7B
:10030000B11D209366018093670190936801A093CB
:100310006901B0936A0180916B0190916C01A09189
:100320006D01B0916E010196A11DB11D80936B010D
:1003300090936C01A0936D01B0936E01BF91AF914A
:100340009F918F913F912F910F900FBE0F901F9013
:1003500018953FB7F89480916B0190916C01A09132
:100360006D01B0916E0126B5A89B05C02F3F19F015
:100370000196A11DB11D3FBF6627782F892F9A2FA7
:10038000620F711D811D911D43E0660F771F881F4D
:10039000991F4A95D1F70895CF92DF92EF92FF927D
:1003A000CF93DF936B017C010E94A901EB01C11483
:1003B000D104E104F10489F00E9436070E94A901EA
:1003C0006C1B7D0B683E734090F381E0C81AD10826
:1003D000E108F108C851DC4FEACFDF91CF91FF90DF
:1003E000EF90DF90CF900895789484B5826084BDBB
:1003F00084B5816084BD85B5826085BD85B5816029
:1004000085BDEEE6F0E0808181608083E1E8F0E088
:100410001082808182608083808181608083E0E8B7
:10042000F0E0808181608083E1E9F0E0808182609A
:100430008083808181608083E0E9F0E08081816059
:100440008083E1ECF0E08081846080838081826041
:100450008083808181608083E3ECF0E08081816033
:100460008083E0ECF0E0808182608083E2ECF0E069
:10047000808181608083EAE7F0E08081846080830E
:1004800080818260808380818E7F8083808180688C
:1004900080830895CF93DF931F92CDB7DEB7698332
:1004A000DC01ED91FC910280F381E02D41E050E010
:1004B000BE016F5F7F4F09950F90DF91CF91089537
:1004C000CF93DF93EC018C859D8597FF05C082E07B
:1004D0000E9463049D878C878C859D85DF91CF91D9
:1004E000089583E00C94B806FC018485958597FDFA
:1004F00006C082E00E940B0490E00196089582E01D
:100500000E940B0490E00895FC018485958597FD79
:1005100005C02FEF3FEF35872487089582E00C94C4
:100520006304CF93DF93EC0180910701882331F0BE
:1005300083E00E9494041816190634F081E090E0DC
:100540009B838A8380E090E0DF91CF910895FC0146
:1005500020812E5F208342E450E06CEA70E080E866
:100560000C942F05FC0181819081913A59F48132DC
:1005700009F03CC047E050E060E071E080E00E949C
:100580002F0543C0913291F5803239F467E070E075
:1005900080E091E00E94600506C0823209F035C01B
:1005A0008281809307018091000190910101A091C7
:1005B0000201B0910301803B9440A105B105C1F453
:1005C0008091070180FD14C087E797E790930108A9
:1005D000809300082BE088E190E00FB6F894A8958E
:1005E000809360000FBE209360000FC080E00895EC
:1005F00088E10FB6F89480936000109260000FBEFF
:10060000A895109201081092000881E008952FEF3C
:100610003FEFFC01358724870895109272011092F4
:10062000710188EE93E0A0E0B0E0809373019093B5
:100630007401A0937501B09376018CE391E09093DF
:10064000700180936F018FEF9FEF90937C018093F7
:100650007B01089508950E94F4010E942A038FEB04
:1006600091E00E9418070E944B01C0E0D0E00E9478
:1006700053012097E1F30E940000F9CFCF92DF925F
:10068000EF92FF920F931F93CF93DF936C017A0148
:10069000EB01E60EF71E00E010E0CE15DF0561F07D
:1006A0006991D601ED91FC910190F081E02DC60198
:1006B0000995080F191FF1CFC801DF91CF911F9144
:1006C0000F91FF90EF90DF90CF9008956115710525
:1006D00081F0DB010D900020E9F7AD014150510997
:1006E000461B570BDC01ED91FC910280F381E02D5C
:1006F000099480E090E0089568E471E00C9466034A
:100700000F931F93CF93DF93EC010E9466038C013C
:10071000CE010E947C03800F911FDF91CF911F912A
:100720000F9108954091C3015091C4012091C101DE
:100730003091C20142175307B4F49091E8009570CC
:10074000E1F39091E80092FD19C08093F10080914F
:10075000C3019091C40101968F739927892B19F4D5
:100760008EEF8093E8008091C3019091C4010196BF
:100770009093C4018093C30181E0089580E00895BF
:10078000CF92DF92FF920F931F93CF93DF931F922D
:10079000CDB7DEB7082F162F862F880F8E5F99836F
:1007A0000E94920383E00E949203F02EC02E998152
:1007B000D92E8C2D8F19811778F4F60184910E941F
:1007C0009203082F80E00E9492038023FFEFCF1A4C
:1007D000DF0A8111EECF01C081E00F90DF91CF9150
:1007E0001F910F91FF90DF90CF900895615030F0EE
:1007F0002091F100FC0120830196F8CF289884E62F
:100800008093C60108952FB7FC012083F894677088
:100810006093E9000895CF93DF931F92CDB7DEB7C1
:10082000682FCE0101960E9403048091F200998105
:100830009FBF0F90DF91CF910895FF920F931F9369
:10084000CF93DF9300D0CDB7DEB7F62E8A0190911B
:10085000C501992311F057FF03C08FEF9FEF2BC005
:10086000682FCE0101967A830E9403048091F200E2
:1008700090E0A8017A81801791070CF4AC01EF2D6C
:10088000F72FF40E84E6FE1639F028988093C601FF
:100890009091F1009193F7CF4115510521F080918E
:1008A000F200882321F089818FBFCA0104C08BE642
:1008B0008093E800F8CF0F900F90DF91CF911F91B8
:1008C0000F91FF900895CF93DF931F92CDB7DEB7BE
:1008D00041E050E0BE016F5F7F4F0E941D04019711
:1008E00019F4898190E002C08FEF9FEF0F90DF91A4
:1008F000CF910895CF93DF931F92CDB7DEB7682FC6
:10090000CE0101960E9403049091E800892F807225
:1009100095FF04C09091F20080E4891B99819FBFEC
:100920000F90DF91CF9108956F927F928F929F9257
:10093000AF92BF92CF92DF92EF92FF920F931F93ED
:10094000CF93DF931F92CDB7DEB7782E7B01C42EF5
:10095000B52E8091C501882369F0042F152F8AEFE9
:10096000D82E872D8072982E9AE3A92E872D807419
:10097000882E11C08FEF9FEF57C0872D0E947A04F9
:10098000682E81110CC0DA94A9F361E070E080E078
:1009900090E00E94CC010115110579F73BC0282F8A
:1009A00030E0021713070CF4602E672DCE0101967C
:1009B0000E9403048091E80085FF29C0262D30E0C5
:1009C000021B130B992039F06A948FEF6816B1F06F
:1009D0001092F100F9CFF701862D77FE07C0815004
:1009E00058F094919093F1003196F9CF815020F016
:1009F00091919093F100FACFE20EF31E8091E800FE
:100A000085FF0FC00115110511F481100AC08981FD
:100A10008FBFC1CF5D9884E68093C7018C2D9B2D3D
:100A200003C0A092E800F3CF0F90DF91CF911F9108
:100A30000F91FF90EF90DF90CF90BF90AF909F907D
:100A40008F907F906F9008951092E9001092C401EA
:100A50001092C3019093C2018093C1010895CF9277
:100A6000DF92FF920F931F93CF93DF9300D0CDB708
:100A7000DEB7F82E8A016B0101151105B1F0F60100
:100A8000F7FE02C0849101C0808149835A830E948D
:100A9000920301501109FFEFCF1ADF0A49815A81F1
:100AA0008111EACF8FEF9FEF01C0CA010F900F9025
:100AB000DF91CF911F910F91FF90DF90CF9008951C
:100AC0001F93CF93DF931F92CDB7DEB7162F2091E0
:100AD000E80022FFFCCF612F79830E94F6038BEFA1
:100AE0008093E800812F7981972F0F90DF91CF912C
:100AF0001F910895CF93DF931F92CDB7DEB7198270
:100B0000CE0101960E94A702CE0101960E945507D0
:100B1000898190E00F90DF91CF9108951F920F92FD
:100B20000FB60F921124EF92FF920F931F932F9302
:100B30003F934F935F936F937F938F939F93AF9365
:100B4000BF93EF93FF93CF93DF93CDB7DEB7629759
:100B5000DEBFCDBF1092E9008091E80083FFEBC0BB
:100B600068E0CE010A960E94F60382EF8093E800C7
:100B70009A8597FF05C08091E80080FFFCCF03C0F5
:100B80008EEF8093E800892F807609F0B9C08B85BD
:100B9000811105C01092F1001092F100C5C0282FFC
:100BA0002D7F213009F4C0C0853049F48091E800E0
:100BB00080FFFCCF8C8580688093E300B5C08630D1
:100BC00009F076C02D85E888F988223071F580E03B
:100BD00090E02A8B0E9424050E947A0599E08E01FC
:100BE0000F5F1F4FF801392F11923A95E9F799835A
:100BF0002A892A8391E09E8390E898879AEF9987C3
:100C00002091C3013091C401275F3F4F3C832B8368
:100C10008D83C7010E94240549E050E0B80180E0BF
:100C20000E942F050E947A057FC0C7012A8B0E946F
:100C300024052A89223241F482E290E00E94600772
:100C4000892B09F071C074C0213069F488899989B1
:100C5000089711F42093C0018091C001811118C040
:100C600065E071E01AC0233009F062C08C858823EA
:100C700091F0823021F465E185E291E006C0813097
:100C800009F056C06DE087E191E00E94C0034AC0C0
:100C900063EF70E002C06BE371E06115710509F468
:100CA00047C0FB01449150E080E80E942F053CC002
:100CB000873009F43DC0883021F481E08093F10051
:100CC00033C0893089F5937099F5EFEEF0E081E05B
:100CD00021E096E38093E9002093EB003491309378
:100CE000EC009093ED008F5F3196853099F78EE799
:100CF0008093EA001092EA008C858093C50114C0AD
:100D0000888999890E9424058E85811105C0CE01AC
:100D10000A960E94B20206C0823051F4CE010A96B1
:100D20000E948807882321F08EEF8093E80003C09B
:100D300081E28093EB0062960FB6F894DEBF0FBE9F
:100D4000CDBFDF91CF91FF91EF91BF91AF919F9177
:100D50008F917F916F915F914F913F912F911F9153
:100D60000F91FF90EF900F900FBE0F901F9018956E
:100D70008093E9008091F200882319F08AE3809340
:100D8000E80008951F920F920FB60F9211242F932F
:100D90003F934F935F936F937F938F939F93AF9303
:100DA000BF93EF93FF938091E1001092E10083FFE6
:100DB0000FC01092E90091E09093EB001092EC00CC
:100DC00092E39093ED001092C50198E09093F000AB
:100DD00082FF1DC083E00E94B8068091C70188236E
:100DE00039F08091C70181508093C701882369F051
:100DF0008091C601882359F08091C601815080936B
:100E0000C601811104C0289A02C05D9AF1CFFF91FA
:100E1000EF91BF91AF919F918F917F916F915F9172
:100E20004F913F912F910F900FBE0F901F901895EB
:100E30001092C50181E08093D70080EA8093D800AA
:100E400082E089BD09B400FEFDCF61E070E080E082
:100E500090E00E94CC0180E98093D8008CE08093E0
:100E6000E2001092E000559A209A08950895FF92AA
:100E70000F931F93CF93DF93EC01F62EE881F98156
:100E80000480F581E02D09958C01E881F9810680C7
:100E9000F781E02D6F2DCE010995C8019927DF91CB
:100EA000CF911F910F91FF900895FC0120812F5F3A
:100EB000208349E150E06FEB71E080E80C942F054E
:100EC00045E650E068ED71E080E80C942F05EF9264
:100ED000FF920F931F93CF93DF931F92CDB7DEB78F
:100EE00089838B017A0141E050E0BE016F5F7F4F43
:100EF00084E00E949404A701B80184E40E94940451
:100F00000F90DF91CF911F910F91FF90EF90089577
:100F1000FC0191818081813A31F481E0913091F03E
:100F2000933089F411C0813271F49B3021F48281B5
:100F30008093090105C09A3031F4828180930801C1
:100F400081E00895089580E0089548E050E082E04F
:100F50000C946707CF93DF93DC01683818F0E8E75B
:100F6000E60F25C0E62FF0E067FF11C0E058F10959
:100F700081E090E001C0880FEA95EAF714969C9111
:100F80001497982B14969C931497E0E010C0E15CA2
:100F9000FE4FE491EE2309F440C0E7FF08C0149629
:100FA0008C911497826014968C931497EF77169611
:100FB0008C9116978E1741F117968C9117978E1773
:100FC00019F118968C9118978E17F1F019968C914B
:100FD00019978E17C9F01A968C911A978E17A1F04F
:100FE0001B968C911B978E1779F080E090E0ED01B5
:100FF000C80FD91F2E81211102C0EE8305C00196B2
:1010000086309105A1F709C0BD016C5F7F4FCD010E
:101010000E94A50781E090E008C081E090E013966F
:101020009C938E93129780E090E0DF91CF9108958A
:10103000683818F0E8E7E60F25C0E62FF0E067FF14
:1010400012C0E058F10921E030E001C0220FEA951A
:10105000EAF72095DC0114963C91149732231496FC
:101060003C93E0E00FC0E15CFE4FE491EE2329F1F8
:10107000E7FF08C0DC0114962C9114972D7F14967D
:101080002C93EF7720E030E0EE2351F0DC01A20F4B
:10109000B31F16964C9116974E1302C016961C92CB
:1010A0002F5F3F4F2630310579F7BC016C5F7F4FD2
:1010B0000E94A50781E090E0089580E090E0089507
:1010C000FC011682178210861186128613861482FE
:1010D000BC016C5F7F4F0C94A5071092D401109255
:1010E000CB011092CA018BE591E09093C9018093E6
:1010F000C8010895EE0FFF1F0590F491E02D0994AB
:04110000F894FFCF91
:1011040000E10000000000000101546869732069D7
:1011140073206E657776657273696F6E207468618B
:1011240074204920686176652031322070726F70B6
:101134006572746965732E00000000004A02910212
:1011440074028402600271020D0A006E616E00690D
:101154006E66006F7666000000000037073E03AA43
:06116400071808600800F6
:00000001FF
